{
  "contractName": "Sample",
  "abi": [
    {
      "inputs": [],
      "stateMutability": "nonpayable",
      "type": "constructor"
    },
    {
      "anonymous": false,
      "inputs": [
        {
          "indexed": false,
          "internalType": "address",
          "name": "from",
          "type": "address"
        },
        {
          "indexed": false,
          "internalType": "address",
          "name": "to",
          "type": "address"
        },
        {
          "indexed": false,
          "internalType": "uint256",
          "name": "amount",
          "type": "uint256"
        }
      ],
      "name": "Sent",
      "type": "event"
    },
    {
      "inputs": [],
      "name": "a",
      "outputs": [
        {
          "internalType": "uint128",
          "name": "",
          "type": "uint128"
        }
      ],
      "stateMutability": "view",
      "type": "function",
      "constant": true
    },
    {
      "inputs": [
        {
          "internalType": "address",
          "name": "",
          "type": "address"
        }
      ],
      "name": "acc",
      "outputs": [
        {
          "internalType": "uint256",
          "name": "",
          "type": "uint256"
        }
      ],
      "stateMutability": "view",
      "type": "function",
      "constant": true
    },
    {
      "inputs": [],
      "name": "owner",
      "outputs": [
        {
          "internalType": "address",
          "name": "",
          "type": "address"
        }
      ],
      "stateMutability": "view",
      "type": "function",
      "constant": true
    },
    {
      "inputs": [],
      "name": "readValue",
      "outputs": [
        {
          "internalType": "uint128",
          "name": "",
          "type": "uint128"
        }
      ],
      "stateMutability": "view",
      "type": "function",
      "constant": true
    },
    {
      "inputs": [
        {
          "internalType": "uint128",
          "name": "b",
          "type": "uint128"
        }
      ],
      "name": "appendValue",
      "outputs": [],
      "stateMutability": "nonpayable",
      "type": "function"
    },
    {
      "inputs": [
        {
          "internalType": "address",
          "name": "dest",
          "type": "address"
        }
      ],
      "name": "giveMoneyTo",
      "outputs": [],
      "stateMutability": "payable",
      "type": "function",
      "payable": true
    },
    {
      "inputs": [],
      "name": "checkBalance",
      "outputs": [
        {
          "internalType": "uint256",
          "name": "",
          "type": "uint256"
        }
      ],
      "stateMutability": "view",
      "type": "function",
      "constant": true
    },
    {
      "inputs": [
        {
          "internalType": "uint256",
          "name": "amt",
          "type": "uint256"
        }
      ],
      "name": "withdrawMoney",
      "outputs": [],
      "stateMutability": "payable",
      "type": "function",
      "payable": true
    }
  ],
  "bytecode": "0x608060405234801561001057600080fd5b50600a6000806101000a8154816fffffffffffffffffffffffffffffffff02191690836fffffffffffffffffffffffffffffffff16021790555033600160006101000a81548173ffffffffffffffffffffffffffffffffffffffff021916908373ffffffffffffffffffffffffffffffffffffffff1602179055506109058061009a6000396000f3fe60806040526004361061007b5760003560e01c806382da2e571161004e57806382da2e57146101205780638da5cb5b1461014b578063c71daccb14610176578063f1d56ed4146101a15761007b565b80630dbe671f1461008057806354876921146100ab57806358acfecc146100c75780637d37df64146100e3575b600080fd5b34801561008c57600080fd5b506100956101ca565b6040516100a2919061052c565b60405180910390f35b6100c560048036038101906100c09190610582565b6101ea565b005b6100e160048036038101906100dc919061060d565b61030c565b005b3480156100ef57600080fd5b5061010a6004803603810190610105919061060d565b610365565b6040516101179190610649565b60405180910390f35b34801561012c57600080fd5b5061013561037d565b604051610142919061052c565b60405180910390f35b34801561015757600080fd5b506101606103a2565b60405161016d9190610673565b60405180910390f35b34801561018257600080fd5b5061018b6103c8565b6040516101989190610649565b60405180910390f35b3480156101ad57600080fd5b506101c860048036038101906101c391906106ba565b61040f565b005b60008054906101000a90046fffffffffffffffffffffffffffffffff1681565b600260003373ffffffffffffffffffffffffffffffffffffffff1673ffffffffffffffffffffffffffffffffffffffff1681526020019081526020016000205481111561026c576040517f08c379a000000000000000000000000000000000000000000000000000000000815260040161026390610744565b60405180910390fd5b80600260003373ffffffffffffffffffffffffffffffffffffffff1673ffffffffffffffffffffffffffffffffffffffff16815260200190815260200160002060008282546102bb9190610793565b925050819055503373ffffffffffffffffffffffffffffffffffffffff166108fc829081150290604051600060405180830381858888f19350505050158015610308573d6000803e3d6000fd5b5050565b34600260008373ffffffffffffffffffffffffffffffffffffffff1673ffffffffffffffffffffffffffffffffffffffff168152602001908152602001600020600082825461035b91906107c7565b9250508190555050565b60026020528060005260406000206000915090505481565b60008060009054906101000a90046fffffffffffffffffffffffffffffffff16905090565b600160009054906101000a900473ffffffffffffffffffffffffffffffffffffffff1681565b6000600260003373ffffffffffffffffffffffffffffffffffffffff1673ffffffffffffffffffffffffffffffffffffffff16815260200190815260200160002054905090565b600160009054906101000a900473ffffffffffffffffffffffffffffffffffffffff1673ffffffffffffffffffffffffffffffffffffffff163373ffffffffffffffffffffffffffffffffffffffff161461049f576040517f08c379a000000000000000000000000000000000000000000000000000000000815260040161049690610869565b60405180910390fd5b8060008054906101000a90046fffffffffffffffffffffffffffffffff166104c79190610889565b6000806101000a8154816fffffffffffffffffffffffffffffffff02191690836fffffffffffffffffffffffffffffffff16021790555050565b60006fffffffffffffffffffffffffffffffff82169050919050565b61052681610501565b82525050565b6000602082019050610541600083018461051d565b92915050565b600080fd5b6000819050919050565b61055f8161054c565b811461056a57600080fd5b50565b60008135905061057c81610556565b92915050565b60006020828403121561059857610597610547565b5b60006105a68482850161056d565b91505092915050565b600073ffffffffffffffffffffffffffffffffffffffff82169050919050565b60006105da826105af565b9050919050565b6105ea816105cf565b81146105f557600080fd5b50565b600081359050610607816105e1565b92915050565b60006020828403121561062357610622610547565b5b6000610631848285016105f8565b91505092915050565b6106438161054c565b82525050565b600060208201905061065e600083018461063a565b92915050565b61066d816105cf565b82525050565b60006020820190506106886000830184610664565b92915050565b61069781610501565b81146106a257600080fd5b50565b6000813590506106b48161068e565b92915050565b6000602082840312156106d0576106cf610547565b5b60006106de848285016106a5565b91505092915050565b600082825260208201905092915050565b7f496e73756666696369656e742046756e64730000000000000000000000000000600082015250565b600061072e6012836106e7565b9150610739826106f8565b602082019050919050565b6000602082019050818103600083015261075d81610721565b9050919050565b7f4e487b7100000000000000000000000000000000000000000000000000000000600052601160045260246000fd5b600061079e8261054c565b91506107a98361054c565b9250828210156107bc576107bb610764565b5b828203905092915050565b60006107d28261054c565b91506107dd8361054c565b9250827fffffffffffffffffffffffffffffffffffffffffffffffffffffffffffffffff0382111561081257610811610764565b5b828201905092915050565b7f5265737472696374656420416363657373000000000000000000000000000000600082015250565b60006108536011836106e7565b915061085e8261081d565b602082019050919050565b6000602082019050818103600083015261088281610846565b9050919050565b600061089482610501565b915061089f83610501565b9250826fffffffffffffffffffffffffffffffff038211156108c4576108c3610764565b5b82820190509291505056fea264697066735822122061fc39d227a48de9a07d0fc79ff64de78014b6ed1a1af69dd0a4c139ddeacd1064736f6c634300080f0033",
  "immutableReferences": {},
  "source": "// SPDX-License-Identifier: MIT\npragma solidity ^0.8.15;\n\ncontract Sample{\n    uint128 public a;\n    address public owner;\n    mapping (address=>uint256) public acc;\n    \n    constructor(){\n        a = 10;\n        owner = msg.sender;\n    }\n\n    event Sent(address from, address to, uint amount);\n\n    modifier ownerOnly() {\n        require(msg.sender == owner,'Restricted Access');\n        _;\n    }\n\n    function readValue() public view returns (uint128) {\n        return a;\n    }\n\n    function appendValue(uint128 b) public ownerOnly {\n        a = a + b;\n    }\n\n    function giveMoneyTo(address dest) public payable {\n        acc[dest] += msg.value;\n    }\n\n    function checkBalance() public view returns (uint256) {\n        return acc[msg.sender];\n    }\n\n    function withdrawMoney(uint256 amt) public payable {\n        require(amt <= acc[msg.sender],'Insufficient Funds');\n        acc[msg.sender] -= amt;\n        payable(msg.sender).transfer(amt);\n        \n    }\n\n}\n",
  "sourcePath": "/home/einzelganger/Storage/BlockChain/M22/sample/sample/contracts/Sample.sol",
  "compiler": {
    "name": "solc",
    "version": "0.8.15+commit.e14f2714.Emscripten.clang"
  },
  "schemaVersion": "3.4.8",
  "updatedAt": "2022-07-29T05:14:58.902Z",
  "networkType": "ethereum",
  "devdoc": {
    "kind": "dev",
    "methods": {},
    "version": 1
  },
  "userdoc": {
    "kind": "user",
    "methods": {},
    "version": 1
  }
}